{
  "_format": "hh-sol-artifact-1",
  "contractName": "NFTix",
  "sourceName": "contracts/NFTix.sol",
  "abi": [
    {
      "inputs": [
        {
          "internalType": "string",
          "name": "name",
          "type": "string"
        },
        {
          "internalType": "string",
          "name": "symbol",
          "type": "string"
        },
        {
          "internalType": "string",
          "name": "eventURI",
          "type": "string"
        }
      ],
      "stateMutability": "nonpayable",
      "type": "constructor"
    },
    {
      "anonymous": false,
      "inputs": [
        {
          "indexed": true,
          "internalType": "address",
          "name": "owner",
          "type": "address"
        },
        {
          "indexed": true,
          "internalType": "address",
          "name": "approved",
          "type": "address"
        },
        {
          "indexed": true,
          "internalType": "uint256",
          "name": "tokenId",
          "type": "uint256"
        }
      ],
      "name": "Approval",
      "type": "event"
    },
    {
      "anonymous": false,
      "inputs": [
        {
          "indexed": true,
          "internalType": "address",
          "name": "owner",
          "type": "address"
        },
        {
          "indexed": true,
          "internalType": "address",
          "name": "operator",
          "type": "address"
        },
        {
          "indexed": false,
          "internalType": "bool",
          "name": "approved",
          "type": "bool"
        }
      ],
      "name": "ApprovalForAll",
      "type": "event"
    },
    {
      "anonymous": false,
      "inputs": [
        {
          "indexed": true,
          "internalType": "address",
          "name": "previousOwner",
          "type": "address"
        },
        {
          "indexed": true,
          "internalType": "address",
          "name": "newOwner",
          "type": "address"
        }
      ],
      "name": "OwnershipTransferred",
      "type": "event"
    },
    {
      "anonymous": false,
      "inputs": [
        {
          "indexed": true,
          "internalType": "address",
          "name": "from",
          "type": "address"
        },
        {
          "indexed": true,
          "internalType": "address",
          "name": "to",
          "type": "address"
        },
        {
          "indexed": true,
          "internalType": "uint256",
          "name": "tokenId",
          "type": "uint256"
        }
      ],
      "name": "Transfer",
      "type": "event"
    },
    {
      "inputs": [
        {
          "internalType": "address",
          "name": "to",
          "type": "address"
        },
        {
          "internalType": "uint256",
          "name": "tokenId",
          "type": "uint256"
        }
      ],
      "name": "approve",
      "outputs": [],
      "stateMutability": "nonpayable",
      "type": "function"
    },
    {
      "inputs": [
        {
          "internalType": "address",
          "name": "recipient",
          "type": "address"
        },
        {
          "internalType": "string",
          "name": "tokenURI",
          "type": "string"
        }
      ],
      "name": "awardItem",
      "outputs": [
        {
          "internalType": "uint256",
          "name": "",
          "type": "uint256"
        }
      ],
      "stateMutability": "nonpayable",
      "type": "function"
    },
    {
      "inputs": [
        {
          "internalType": "address",
          "name": "owner",
          "type": "address"
        }
      ],
      "name": "balanceOf",
      "outputs": [
        {
          "internalType": "uint256",
          "name": "",
          "type": "uint256"
        }
      ],
      "stateMutability": "view",
      "type": "function"
    },
    {
      "inputs": [
        {
          "internalType": "uint256",
          "name": "tokenId",
          "type": "uint256"
        }
      ],
      "name": "getApproved",
      "outputs": [
        {
          "internalType": "address",
          "name": "",
          "type": "address"
        }
      ],
      "stateMutability": "view",
      "type": "function"
    },
    {
      "inputs": [
        {
          "internalType": "address",
          "name": "owner",
          "type": "address"
        },
        {
          "internalType": "address",
          "name": "operator",
          "type": "address"
        }
      ],
      "name": "isApprovedForAll",
      "outputs": [
        {
          "internalType": "bool",
          "name": "",
          "type": "bool"
        }
      ],
      "stateMutability": "view",
      "type": "function"
    },
    {
      "inputs": [],
      "name": "metadata",
      "outputs": [
        {
          "internalType": "string",
          "name": "",
          "type": "string"
        }
      ],
      "stateMutability": "view",
      "type": "function"
    },
    {
      "inputs": [],
      "name": "name",
      "outputs": [
        {
          "internalType": "string",
          "name": "",
          "type": "string"
        }
      ],
      "stateMutability": "view",
      "type": "function"
    },
    {
      "inputs": [],
      "name": "owner",
      "outputs": [
        {
          "internalType": "address",
          "name": "",
          "type": "address"
        }
      ],
      "stateMutability": "view",
      "type": "function"
    },
    {
      "inputs": [
        {
          "internalType": "uint256",
          "name": "tokenId",
          "type": "uint256"
        }
      ],
      "name": "ownerOf",
      "outputs": [
        {
          "internalType": "address",
          "name": "",
          "type": "address"
        }
      ],
      "stateMutability": "view",
      "type": "function"
    },
    {
      "inputs": [],
      "name": "renounceOwnership",
      "outputs": [],
      "stateMutability": "nonpayable",
      "type": "function"
    },
    {
      "inputs": [
        {
          "internalType": "address",
          "name": "from",
          "type": "address"
        },
        {
          "internalType": "address",
          "name": "to",
          "type": "address"
        },
        {
          "internalType": "uint256",
          "name": "tokenId",
          "type": "uint256"
        }
      ],
      "name": "safeTransferFrom",
      "outputs": [],
      "stateMutability": "nonpayable",
      "type": "function"
    },
    {
      "inputs": [
        {
          "internalType": "address",
          "name": "from",
          "type": "address"
        },
        {
          "internalType": "address",
          "name": "to",
          "type": "address"
        },
        {
          "internalType": "uint256",
          "name": "tokenId",
          "type": "uint256"
        },
        {
          "internalType": "bytes",
          "name": "_data",
          "type": "bytes"
        }
      ],
      "name": "safeTransferFrom",
      "outputs": [],
      "stateMutability": "nonpayable",
      "type": "function"
    },
    {
      "inputs": [
        {
          "internalType": "address",
          "name": "operator",
          "type": "address"
        },
        {
          "internalType": "bool",
          "name": "approved",
          "type": "bool"
        }
      ],
      "name": "setApprovalForAll",
      "outputs": [],
      "stateMutability": "nonpayable",
      "type": "function"
    },
    {
      "inputs": [
        {
          "internalType": "bytes4",
          "name": "interfaceId",
          "type": "bytes4"
        }
      ],
      "name": "supportsInterface",
      "outputs": [
        {
          "internalType": "bool",
          "name": "",
          "type": "bool"
        }
      ],
      "stateMutability": "view",
      "type": "function"
    },
    {
      "inputs": [],
      "name": "symbol",
      "outputs": [
        {
          "internalType": "string",
          "name": "",
          "type": "string"
        }
      ],
      "stateMutability": "view",
      "type": "function"
    },
    {
      "inputs": [
        {
          "internalType": "uint256",
          "name": "tokenId",
          "type": "uint256"
        }
      ],
      "name": "tokenURI",
      "outputs": [
        {
          "internalType": "string",
          "name": "",
          "type": "string"
        }
      ],
      "stateMutability": "view",
      "type": "function"
    },
    {
      "inputs": [
        {
          "internalType": "address",
          "name": "from",
          "type": "address"
        },
        {
          "internalType": "address",
          "name": "to",
          "type": "address"
        },
        {
          "internalType": "uint256",
          "name": "tokenId",
          "type": "uint256"
        }
      ],
      "name": "transferFrom",
      "outputs": [],
      "stateMutability": "nonpayable",
      "type": "function"
    },
    {
      "inputs": [
        {
          "internalType": "address",
          "name": "newOwner",
          "type": "address"
        }
      ],
      "name": "transferOwnership",
      "outputs": [],
      "stateMutability": "nonpayable",
      "type": "function"
    }
  ],
  "bytecode": "0x60806040523480156200001157600080fd5b50604051620034bc380380620034bc83398181016040528101906200003791906200029f565b82828160009080519060200190620000519291906200017d565b5080600190805190602001906200006a9291906200017d565b5050506200008d62000081620000af60201b60201c565b620000b760201b60201c565b8060099080519060200190620000a59291906200017d565b50505050620004b0565b600033905090565b6000600760009054906101000a900473ffffffffffffffffffffffffffffffffffffffff16905081600760006101000a81548173ffffffffffffffffffffffffffffffffffffffff021916908373ffffffffffffffffffffffffffffffffffffffff1602179055508173ffffffffffffffffffffffffffffffffffffffff168173ffffffffffffffffffffffffffffffffffffffff167f8be0079c531659141344cd1fd0a4f28419497f9722a3daafe3b4186f6b6457e060405160405180910390a35050565b8280546200018b90620003d5565b90600052602060002090601f016020900481019282620001af5760008555620001fb565b82601f10620001ca57805160ff1916838001178555620001fb565b82800160010185558215620001fb579182015b82811115620001fa578251825591602001919060010190620001dd565b5b5090506200020a91906200020e565b5090565b5b80821115620002295760008160009055506001016200020f565b5090565b6000620002446200023e8462000369565b62000340565b9050828152602081018484840111156200025d57600080fd5b6200026a8482856200039f565b509392505050565b600082601f8301126200028457600080fd5b8151620002968482602086016200022d565b91505092915050565b600080600060608486031215620002b557600080fd5b600084015167ffffffffffffffff811115620002d057600080fd5b620002de8682870162000272565b935050602084015167ffffffffffffffff811115620002fc57600080fd5b6200030a8682870162000272565b925050604084015167ffffffffffffffff8111156200032857600080fd5b620003368682870162000272565b9150509250925092565b60006200034c6200035f565b90506200035a82826200040b565b919050565b6000604051905090565b600067ffffffffffffffff82111562000387576200038662000470565b5b62000392826200049f565b9050602081019050919050565b60005b83811015620003bf578082015181840152602081019050620003a2565b83811115620003cf576000848401525b50505050565b60006002820490506001821680620003ee57607f821691505b6020821081141562000405576200040462000441565b5b50919050565b62000416826200049f565b810181811067ffffffffffffffff8211171562000438576200043762000470565b5b80604052505050565b7f4e487b7100000000000000000000000000000000000000000000000000000000600052602260045260246000fd5b7f4e487b7100000000000000000000000000000000000000000000000000000000600052604160045260246000fd5b6000601f19601f8301169050919050565b612ffc80620004c06000396000f3fe608060405234801561001057600080fd5b50600436106101165760003560e01c8063715018a6116100a2578063b88d4fde11610071578063b88d4fde146102cd578063c87b56dd146102e9578063cf37834314610319578063e985e9c514610349578063f2fde38b1461037957610116565b8063715018a61461026b5780638da5cb5b1461027557806395d89b4114610293578063a22cb465146102b157610116565b806323b872dd116100e957806323b872dd146101b5578063392f37e9146101d157806342842e0e146101ef5780636352211e1461020b57806370a082311461023b57610116565b806301ffc9a71461011b57806306fdde031461014b578063081812fc14610169578063095ea7b314610199575b600080fd5b61013560048036038101906101309190611fab565b610395565b60405161014291906123f7565b60405180910390f35b610153610477565b6040516101609190612412565b60405180910390f35b610183600480360381019061017e9190611ffd565b610509565b6040516101909190612390565b60405180910390f35b6101b360048036038101906101ae9190611f6f565b61058e565b005b6101cf60048036038101906101ca9190611e15565b6106a6565b005b6101d9610706565b6040516101e69190612412565b60405180910390f35b61020960048036038101906102049190611e15565b610798565b005b61022560048036038101906102209190611ffd565b6107b8565b6040516102329190612390565b60405180910390f35b61025560048036038101906102509190611db0565b61086a565b6040516102629190612674565b60405180910390f35b610273610922565b005b61027d6109aa565b60405161028a9190612390565b60405180910390f35b61029b6109d4565b6040516102a89190612412565b60405180910390f35b6102cb60048036038101906102c69190611edf565b610a66565b005b6102e760048036038101906102e29190611e64565b610a7c565b005b61030360048036038101906102fe9190611ffd565b610ade565b6040516103109190612412565b60405180910390f35b610333600480360381019061032e9190611f1b565b610c30565b6040516103409190612674565b60405180910390f35b610363600480360381019061035e9190611dd9565b610c68565b60405161037091906123f7565b60405180910390f35b610393600480360381019061038e9190611db0565b610cfc565b005b60007f80ac58cd000000000000000000000000000000000000000000000000000000007bffffffffffffffffffffffffffffffffffffffffffffffffffffffff1916827bffffffffffffffffffffffffffffffffffffffffffffffffffffffff1916148061046057507f5b5e139f000000000000000000000000000000000000000000000000000000007bffffffffffffffffffffffffffffffffffffffffffffffffffffffff1916827bffffffffffffffffffffffffffffffffffffffffffffffffffffffff1916145b80610470575061046f82610df4565b5b9050919050565b606060008054610486906128ca565b80601f01602080910402602001604051908101604052809291908181526020018280546104b2906128ca565b80156104ff5780601f106104d4576101008083540402835291602001916104ff565b820191906000526020600020905b8154815290600101906020018083116104e257829003601f168201915b5050505050905090565b600061051482610e5e565b610553576040517f08c379a000000000000000000000000000000000000000000000000000000000815260040161054a906125b4565b60405180910390fd5b6004600083815260200190815260200160002060009054906101000a900473ffffffffffffffffffffffffffffffffffffffff169050919050565b6000610599826107b8565b90508073ffffffffffffffffffffffffffffffffffffffff168373ffffffffffffffffffffffffffffffffffffffff16141561060a576040517f08c379a000000000000000000000000000000000000000000000000000000000815260040161060190612634565b60405180910390fd5b8073ffffffffffffffffffffffffffffffffffffffff16610629610eca565b73ffffffffffffffffffffffffffffffffffffffff161480610658575061065781610652610eca565b610c68565b5b610697576040517f08c379a000000000000000000000000000000000000000000000000000000000815260040161068e906124f4565b60405180910390fd5b6106a18383610ed2565b505050565b6106b76106b1610eca565b82610f8b565b6106f6576040517f08c379a00000000000000000000000000000000000000000000000000000000081526004016106ed90612654565b60405180910390fd5b610701838383611069565b505050565b606060098054610715906128ca565b80601f0160208091040260200160405190810160405280929190818152602001828054610741906128ca565b801561078e5780601f106107635761010080835404028352916020019161078e565b820191906000526020600020905b81548152906001019060200180831161077157829003601f168201915b5050505050905090565b6107b383838360405180602001604052806000815250610a7c565b505050565b6000806002600084815260200190815260200160002060009054906101000a900473ffffffffffffffffffffffffffffffffffffffff169050600073ffffffffffffffffffffffffffffffffffffffff168173ffffffffffffffffffffffffffffffffffffffff161415610861576040517f08c379a000000000000000000000000000000000000000000000000000000000815260040161085890612534565b60405180910390fd5b80915050919050565b60008073ffffffffffffffffffffffffffffffffffffffff168273ffffffffffffffffffffffffffffffffffffffff1614156108db576040517f08c379a00000000000000000000000000000000000000000000000000000000081526004016108d290612514565b60405180910390fd5b600360008373ffffffffffffffffffffffffffffffffffffffff1673ffffffffffffffffffffffffffffffffffffffff168152602001908152602001600020549050919050565b61092a610eca565b73ffffffffffffffffffffffffffffffffffffffff166109486109aa565b73ffffffffffffffffffffffffffffffffffffffff161461099e576040517f08c379a0000000000000000000000000000000000000000000000000000000008152600401610995906125d4565b60405180910390fd5b6109a860006112c5565b565b6000600760009054906101000a900473ffffffffffffffffffffffffffffffffffffffff16905090565b6060600180546109e3906128ca565b80601f0160208091040260200160405190810160405280929190818152602001828054610a0f906128ca565b8015610a5c5780601f10610a3157610100808354040283529160200191610a5c565b820191906000526020600020905b815481529060010190602001808311610a3f57829003601f168201915b5050505050905090565b610a78610a71610eca565b838361138b565b5050565b610a8d610a87610eca565b83610f8b565b610acc576040517f08c379a0000000000000000000000000000000000000000000000000000000008152600401610ac390612654565b60405180910390fd5b610ad8848484846114f8565b50505050565b6060610ae982610e5e565b610b28576040517f08c379a0000000000000000000000000000000000000000000000000000000008152600401610b1f90612594565b60405180910390fd5b6000600660008481526020019081526020016000208054610b48906128ca565b80601f0160208091040260200160405190810160405280929190818152602001828054610b74906128ca565b8015610bc15780601f10610b9657610100808354040283529160200191610bc1565b820191906000526020600020905b815481529060010190602001808311610ba457829003601f168201915b505050505090506000610bd2611554565b9050600081511415610be8578192505050610c2b565b600082511115610c1d578082604051602001610c0592919061236c565b60405160208183030381529060405292505050610c2b565b610c268461156b565b925050505b919050565b6000610c3c6008611612565b6000610c486008611628565b9050610c548482611636565b610c5e8184611804565b8091505092915050565b6000600560008473ffffffffffffffffffffffffffffffffffffffff1673ffffffffffffffffffffffffffffffffffffffff16815260200190815260200160002060008373ffffffffffffffffffffffffffffffffffffffff1673ffffffffffffffffffffffffffffffffffffffff16815260200190815260200160002060009054906101000a900460ff16905092915050565b610d04610eca565b73ffffffffffffffffffffffffffffffffffffffff16610d226109aa565b73ffffffffffffffffffffffffffffffffffffffff1614610d78576040517f08c379a0000000000000000000000000000000000000000000000000000000008152600401610d6f906125d4565b60405180910390fd5b600073ffffffffffffffffffffffffffffffffffffffff168173ffffffffffffffffffffffffffffffffffffffff161415610de8576040517f08c379a0000000000000000000000000000000000000000000000000000000008152600401610ddf90612454565b60405180910390fd5b610df1816112c5565b50565b60007f01ffc9a7000000000000000000000000000000000000000000000000000000007bffffffffffffffffffffffffffffffffffffffffffffffffffffffff1916827bffffffffffffffffffffffffffffffffffffffffffffffffffffffff1916149050919050565b60008073ffffffffffffffffffffffffffffffffffffffff166002600084815260200190815260200160002060009054906101000a900473ffffffffffffffffffffffffffffffffffffffff1673ffffffffffffffffffffffffffffffffffffffff1614159050919050565b600033905090565b816004600083815260200190815260200160002060006101000a81548173ffffffffffffffffffffffffffffffffffffffff021916908373ffffffffffffffffffffffffffffffffffffffff160217905550808273ffffffffffffffffffffffffffffffffffffffff16610f45836107b8565b73ffffffffffffffffffffffffffffffffffffffff167f8c5be1e5ebec7d5bd14f71427d1e84f3dd0314c0f7b2291e5b200ac8c7c3b92560405160405180910390a45050565b6000610f9682610e5e565b610fd5576040517f08c379a0000000000000000000000000000000000000000000000000000000008152600401610fcc906124d4565b60405180910390fd5b6000610fe0836107b8565b90508073ffffffffffffffffffffffffffffffffffffffff168473ffffffffffffffffffffffffffffffffffffffff16148061104f57508373ffffffffffffffffffffffffffffffffffffffff1661103784610509565b73ffffffffffffffffffffffffffffffffffffffff16145b80611060575061105f8185610c68565b5b91505092915050565b8273ffffffffffffffffffffffffffffffffffffffff16611089826107b8565b73ffffffffffffffffffffffffffffffffffffffff16146110df576040517f08c379a00000000000000000000000000000000000000000000000000000000081526004016110d6906125f4565b60405180910390fd5b600073ffffffffffffffffffffffffffffffffffffffff168273ffffffffffffffffffffffffffffffffffffffff16141561114f576040517f08c379a000000000000000000000000000000000000000000000000000000000815260040161114690612494565b60405180910390fd5b61115a838383611878565b611165600082610ed2565b6001600360008573ffffffffffffffffffffffffffffffffffffffff1673ffffffffffffffffffffffffffffffffffffffff16815260200190815260200160002060008282546111b591906127e0565b925050819055506001600360008473ffffffffffffffffffffffffffffffffffffffff1673ffffffffffffffffffffffffffffffffffffffff168152602001908152602001600020600082825461120c9190612759565b92505081905550816002600083815260200190815260200160002060006101000a81548173ffffffffffffffffffffffffffffffffffffffff021916908373ffffffffffffffffffffffffffffffffffffffff160217905550808273ffffffffffffffffffffffffffffffffffffffff168473ffffffffffffffffffffffffffffffffffffffff167fddf252ad1be2c89b69c2b068fc378daa952ba7f163c4a11628f55a4df523b3ef60405160405180910390a4505050565b6000600760009054906101000a900473ffffffffffffffffffffffffffffffffffffffff16905081600760006101000a81548173ffffffffffffffffffffffffffffffffffffffff021916908373ffffffffffffffffffffffffffffffffffffffff1602179055508173ffffffffffffffffffffffffffffffffffffffff168173ffffffffffffffffffffffffffffffffffffffff167f8be0079c531659141344cd1fd0a4f28419497f9722a3daafe3b4186f6b6457e060405160405180910390a35050565b8173ffffffffffffffffffffffffffffffffffffffff168373ffffffffffffffffffffffffffffffffffffffff1614156113fa576040517f08c379a00000000000000000000000000000000000000000000000000000000081526004016113f1906124b4565b60405180910390fd5b80600560008573ffffffffffffffffffffffffffffffffffffffff1673ffffffffffffffffffffffffffffffffffffffff16815260200190815260200160002060008473ffffffffffffffffffffffffffffffffffffffff1673ffffffffffffffffffffffffffffffffffffffff16815260200190815260200160002060006101000a81548160ff0219169083151502179055508173ffffffffffffffffffffffffffffffffffffffff168373ffffffffffffffffffffffffffffffffffffffff167f17307eab39ab6107e8899845ad3d59bd9653f200f220920489ca2b5937696c31836040516114eb91906123f7565b60405180910390a3505050565b611503848484611069565b61150f8484848461187d565b61154e576040517f08c379a000000000000000000000000000000000000000000000000000000000815260040161154590612434565b60405180910390fd5b50505050565b606060405180602001604052806000815250905090565b606061157682610e5e565b6115b5576040517f08c379a00000000000000000000000000000000000000000000000000000000081526004016115ac90612614565b60405180910390fd5b60006115bf611554565b905060008151116115df576040518060200160405280600081525061160a565b806115e984611a14565b6040516020016115fa92919061236c565b6040516020818303038152906040525b915050919050565b6001816000016000828254019250508190555050565b600081600001549050919050565b600073ffffffffffffffffffffffffffffffffffffffff168273ffffffffffffffffffffffffffffffffffffffff1614156116a6576040517f08c379a000000000000000000000000000000000000000000000000000000000815260040161169d90612574565b60405180910390fd5b6116af81610e5e565b156116ef576040517f08c379a00000000000000000000000000000000000000000000000000000000081526004016116e690612474565b60405180910390fd5b6116fb60008383611878565b6001600360008473ffffffffffffffffffffffffffffffffffffffff1673ffffffffffffffffffffffffffffffffffffffff168152602001908152602001600020600082825461174b9190612759565b92505081905550816002600083815260200190815260200160002060006101000a81548173ffffffffffffffffffffffffffffffffffffffff021916908373ffffffffffffffffffffffffffffffffffffffff160217905550808273ffffffffffffffffffffffffffffffffffffffff16600073ffffffffffffffffffffffffffffffffffffffff167fddf252ad1be2c89b69c2b068fc378daa952ba7f163c4a11628f55a4df523b3ef60405160405180910390a45050565b61180d82610e5e565b61184c576040517f08c379a000000000000000000000000000000000000000000000000000000000815260040161184390612554565b60405180910390fd5b80600660008481526020019081526020016000209080519060200190611873929190611bd4565b505050565b505050565b600061189e8473ffffffffffffffffffffffffffffffffffffffff16611bc1565b15611a07578373ffffffffffffffffffffffffffffffffffffffff1663150b7a026118c7610eca565b8786866040518563ffffffff1660e01b81526004016118e994939291906123ab565b602060405180830381600087803b15801561190357600080fd5b505af192505050801561193457506040513d601f19601f820116820180604052508101906119319190611fd4565b60015b6119b7573d8060008114611964576040519150601f19603f3d011682016040523d82523d6000602084013e611969565b606091505b506000815114156119af576040517f08c379a00000000000000000000000000000000000000000000000000000000081526004016119a690612434565b60405180910390fd5b805181602001fd5b63150b7a0260e01b7bffffffffffffffffffffffffffffffffffffffffffffffffffffffff1916817bffffffffffffffffffffffffffffffffffffffffffffffffffffffff191614915050611a0c565b600190505b949350505050565b60606000821415611a5c576040518060400160405280600181526020017f30000000000000000000000000000000000000000000000000000000000000008152509050611bbc565b600082905060005b60008214611a8e578080611a779061292d565b915050600a82611a8791906127af565b9150611a64565b60008167ffffffffffffffff811115611ad0577f4e487b7100000000000000000000000000000000000000000000000000000000600052604160045260246000fd5b6040519080825280601f01601f191660200182016040528015611b025781602001600182028036833780820191505090505b5090505b60008514611bb557600182611b1b91906127e0565b9150600a85611b2a9190612976565b6030611b369190612759565b60f81b818381518110611b72577f4e487b7100000000000000000000000000000000000000000000000000000000600052603260045260246000fd5b60200101907effffffffffffffffffffffffffffffffffffffffffffffffffffffffffffff1916908160001a905350600a85611bae91906127af565b9450611b06565b8093505050505b919050565b600080823b905060008111915050919050565b828054611be0906128ca565b90600052602060002090601f016020900481019282611c025760008555611c49565b82601f10611c1b57805160ff1916838001178555611c49565b82800160010185558215611c49579182015b82811115611c48578251825591602001919060010190611c2d565b5b509050611c569190611c5a565b5090565b5b80821115611c73576000816000905550600101611c5b565b5090565b6000611c8a611c85846126b4565b61268f565b905082815260208101848484011115611ca257600080fd5b611cad848285612888565b509392505050565b6000611cc8611cc3846126e5565b61268f565b905082815260208101848484011115611ce057600080fd5b611ceb848285612888565b509392505050565b600081359050611d0281612f6a565b92915050565b600081359050611d1781612f81565b92915050565b600081359050611d2c81612f98565b92915050565b600081519050611d4181612f98565b92915050565b600082601f830112611d5857600080fd5b8135611d68848260208601611c77565b91505092915050565b600082601f830112611d8257600080fd5b8135611d92848260208601611cb5565b91505092915050565b600081359050611daa81612faf565b92915050565b600060208284031215611dc257600080fd5b6000611dd084828501611cf3565b91505092915050565b60008060408385031215611dec57600080fd5b6000611dfa85828601611cf3565b9250506020611e0b85828601611cf3565b9150509250929050565b600080600060608486031215611e2a57600080fd5b6000611e3886828701611cf3565b9350506020611e4986828701611cf3565b9250506040611e5a86828701611d9b565b9150509250925092565b60008060008060808587031215611e7a57600080fd5b6000611e8887828801611cf3565b9450506020611e9987828801611cf3565b9350506040611eaa87828801611d9b565b925050606085013567ffffffffffffffff811115611ec757600080fd5b611ed387828801611d47565b91505092959194509250565b60008060408385031215611ef257600080fd5b6000611f0085828601611cf3565b9250506020611f1185828601611d08565b9150509250929050565b60008060408385031215611f2e57600080fd5b6000611f3c85828601611cf3565b925050602083013567ffffffffffffffff811115611f5957600080fd5b611f6585828601611d71565b9150509250929050565b60008060408385031215611f8257600080fd5b6000611f9085828601611cf3565b9250506020611fa185828601611d9b565b9150509250929050565b600060208284031215611fbd57600080fd5b6000611fcb84828501611d1d565b91505092915050565b600060208284031215611fe657600080fd5b6000611ff484828501611d32565b91505092915050565b60006020828403121561200f57600080fd5b600061201d84828501611d9b565b91505092915050565b61202f81612814565b82525050565b61203e81612826565b82525050565b600061204f82612716565b612059818561272c565b9350612069818560208601612897565b61207281612a63565b840191505092915050565b600061208882612721565b612092818561273d565b93506120a2818560208601612897565b6120ab81612a63565b840191505092915050565b60006120c182612721565b6120cb818561274e565b93506120db818560208601612897565b80840191505092915050565b60006120f460328361273d565b91506120ff82612a74565b604082019050919050565b600061211760268361273d565b915061212282612ac3565b604082019050919050565b600061213a601c8361273d565b915061214582612b12565b602082019050919050565b600061215d60248361273d565b915061216882612b3b565b604082019050919050565b600061218060198361273d565b915061218b82612b8a565b602082019050919050565b60006121a3602c8361273d565b91506121ae82612bb3565b604082019050919050565b60006121c660388361273d565b91506121d182612c02565b604082019050919050565b60006121e9602a8361273d565b91506121f482612c51565b604082019050919050565b600061220c60298361273d565b915061221782612ca0565b604082019050919050565b600061222f602e8361273d565b915061223a82612cef565b604082019050919050565b600061225260208361273d565b915061225d82612d3e565b602082019050919050565b600061227560318361273d565b915061228082612d67565b604082019050919050565b6000612298602c8361273d565b91506122a382612db6565b604082019050919050565b60006122bb60208361273d565b91506122c682612e05565b602082019050919050565b60006122de60298361273d565b91506122e982612e2e565b604082019050919050565b6000612301602f8361273d565b915061230c82612e7d565b604082019050919050565b600061232460218361273d565b915061232f82612ecc565b604082019050919050565b600061234760318361273d565b915061235282612f1b565b604082019050919050565b6123668161287e565b82525050565b600061237882856120b6565b915061238482846120b6565b91508190509392505050565b60006020820190506123a56000830184612026565b92915050565b60006080820190506123c06000830187612026565b6123cd6020830186612026565b6123da604083018561235d565b81810360608301526123ec8184612044565b905095945050505050565b600060208201905061240c6000830184612035565b92915050565b6000602082019050818103600083015261242c818461207d565b905092915050565b6000602082019050818103600083015261244d816120e7565b9050919050565b6000602082019050818103600083015261246d8161210a565b9050919050565b6000602082019050818103600083015261248d8161212d565b9050919050565b600060208201905081810360008301526124ad81612150565b9050919050565b600060208201905081810360008301526124cd81612173565b9050919050565b600060208201905081810360008301526124ed81612196565b9050919050565b6000602082019050818103600083015261250d816121b9565b9050919050565b6000602082019050818103600083015261252d816121dc565b9050919050565b6000602082019050818103600083015261254d816121ff565b9050919050565b6000602082019050818103600083015261256d81612222565b9050919050565b6000602082019050818103600083015261258d81612245565b9050919050565b600060208201905081810360008301526125ad81612268565b9050919050565b600060208201905081810360008301526125cd8161228b565b9050919050565b600060208201905081810360008301526125ed816122ae565b9050919050565b6000602082019050818103600083015261260d816122d1565b9050919050565b6000602082019050818103600083015261262d816122f4565b9050919050565b6000602082019050818103600083015261264d81612317565b9050919050565b6000602082019050818103600083015261266d8161233a565b9050919050565b6000602082019050612689600083018461235d565b92915050565b60006126996126aa565b90506126a582826128fc565b919050565b6000604051905090565b600067ffffffffffffffff8211156126cf576126ce612a34565b5b6126d882612a63565b9050602081019050919050565b600067ffffffffffffffff821115612700576126ff612a34565b5b61270982612a63565b9050602081019050919050565b600081519050919050565b600081519050919050565b600082825260208201905092915050565b600082825260208201905092915050565b600081905092915050565b60006127648261287e565b915061276f8361287e565b9250827fffffffffffffffffffffffffffffffffffffffffffffffffffffffffffffffff038211156127a4576127a36129a7565b5b828201905092915050565b60006127ba8261287e565b91506127c58361287e565b9250826127d5576127d46129d6565b5b828204905092915050565b60006127eb8261287e565b91506127f68361287e565b925082821015612809576128086129a7565b5b828203905092915050565b600061281f8261285e565b9050919050565b60008115159050919050565b60007fffffffff0000000000000000000000000000000000000000000000000000000082169050919050565b600073ffffffffffffffffffffffffffffffffffffffff82169050919050565b6000819050919050565b82818337600083830152505050565b60005b838110156128b557808201518184015260208101905061289a565b838111156128c4576000848401525b50505050565b600060028204905060018216806128e257607f821691505b602082108114156128f6576128f5612a05565b5b50919050565b61290582612a63565b810181811067ffffffffffffffff8211171561292457612923612a34565b5b80604052505050565b60006129388261287e565b91507fffffffffffffffffffffffffffffffffffffffffffffffffffffffffffffffff82141561296b5761296a6129a7565b5b600182019050919050565b60006129818261287e565b915061298c8361287e565b92508261299c5761299b6129d6565b5b828206905092915050565b7f4e487b7100000000000000000000000000000000000000000000000000000000600052601160045260246000fd5b7f4e487b7100000000000000000000000000000000000000000000000000000000600052601260045260246000fd5b7f4e487b7100000000000000000000000000000000000000000000000000000000600052602260045260246000fd5b7f4e487b7100000000000000000000000000000000000000000000000000000000600052604160045260246000fd5b6000601f19601f8301169050919050565b7f4552433732313a207472616e7366657220746f206e6f6e20455243373231526560008201527f63656976657220696d706c656d656e7465720000000000000000000000000000602082015250565b7f4f776e61626c653a206e6577206f776e657220697320746865207a65726f206160008201527f6464726573730000000000000000000000000000000000000000000000000000602082015250565b7f4552433732313a20746f6b656e20616c7265616479206d696e74656400000000600082015250565b7f4552433732313a207472616e7366657220746f20746865207a65726f2061646460008201527f7265737300000000000000000000000000000000000000000000000000000000602082015250565b7f4552433732313a20617070726f766520746f2063616c6c657200000000000000600082015250565b7f4552433732313a206f70657261746f7220717565727920666f72206e6f6e657860008201527f697374656e7420746f6b656e0000000000000000000000000000000000000000602082015250565b7f4552433732313a20617070726f76652063616c6c6572206973206e6f74206f7760008201527f6e6572206e6f7220617070726f76656420666f7220616c6c0000000000000000602082015250565b7f4552433732313a2062616c616e636520717565727920666f7220746865207a6560008201527f726f206164647265737300000000000000000000000000000000000000000000602082015250565b7f4552433732313a206f776e657220717565727920666f72206e6f6e657869737460008201527f656e7420746f6b656e0000000000000000000000000000000000000000000000602082015250565b7f45524337323155524953746f726167653a2055524920736574206f66206e6f6e60008201527f6578697374656e7420746f6b656e000000000000000000000000000000000000602082015250565b7f4552433732313a206d696e7420746f20746865207a65726f2061646472657373600082015250565b7f45524337323155524953746f726167653a2055524920717565727920666f722060008201527f6e6f6e6578697374656e7420746f6b656e000000000000000000000000000000602082015250565b7f4552433732313a20617070726f76656420717565727920666f72206e6f6e657860008201527f697374656e7420746f6b656e0000000000000000000000000000000000000000602082015250565b7f4f776e61626c653a2063616c6c6572206973206e6f7420746865206f776e6572600082015250565b7f4552433732313a207472616e73666572206f6620746f6b656e2074686174206960008201527f73206e6f74206f776e0000000000000000000000000000000000000000000000602082015250565b7f4552433732314d657461646174613a2055524920717565727920666f72206e6f60008201527f6e6578697374656e7420746f6b656e0000000000000000000000000000000000602082015250565b7f4552433732313a20617070726f76616c20746f2063757272656e74206f776e6560008201527f7200000000000000000000000000000000000000000000000000000000000000602082015250565b7f4552433732313a207472616e736665722063616c6c6572206973206e6f74206f60008201527f776e6572206e6f7220617070726f766564000000000000000000000000000000602082015250565b612f7381612814565b8114612f7e57600080fd5b50565b612f8a81612826565b8114612f9557600080fd5b50565b612fa181612832565b8114612fac57600080fd5b50565b612fb88161287e565b8114612fc357600080fd5b5056fea26469706673582212200df4e843abffec3e50001a0f3fddb6de7e3c657158dbdb8890b6ca6d2b75ad3964736f6c63430008040033",
  "linkReferences": {},
  "deployedLinkReferences": {}
}